{
 "cells": [
  {
   "cell_type": "code",
   "execution_count": 35,
   "metadata": {},
   "outputs": [],
   "source": [
    "############## PLEASE RUN THIS CELL FIRST! ###################\n",
    "\n",
    "# import everything and define a test runner function\n",
    "from importlib import reload\n",
    "from helper import run\n",
    "import ecc, helper, op, script, tx"
   ]
  },
  {
   "cell_type": "markdown",
   "metadata": {},
   "source": [
    "### Exercise 1\n",
    "\n",
    "\n",
    "\n",
    "\n",
    "#### Make [this test](/edit/week3/tx.py) pass: `tx.py:TxTest:test_parse_version`"
   ]
  },
  {
   "cell_type": "code",
   "execution_count": 4,
   "metadata": {},
   "outputs": [
    {
     "name": "stderr",
     "output_type": "stream",
     "text": [
      ".\n",
      "----------------------------------------------------------------------\n",
      "Ran 1 test in 0.001s\n",
      "\n",
      "OK\n"
     ]
    }
   ],
   "source": [
    "# Exercise 1\n",
    "\n",
    "reload(tx)\n",
    "run(tx.TxTest('test_parse_version'))"
   ]
  },
  {
   "cell_type": "markdown",
   "metadata": {},
   "source": [
    "### Exercise 2\n",
    "\n",
    "\n",
    "\n",
    "\n",
    "#### Make [this test](/edit/week3/tx.py) pass: `tx.py:TxTest:test_parse_inputs`"
   ]
  },
  {
   "cell_type": "code",
   "execution_count": 11,
   "metadata": {},
   "outputs": [
    {
     "name": "stderr",
     "output_type": "stream",
     "text": [
      ".\n",
      "----------------------------------------------------------------------\n",
      "Ran 1 test in 0.001s\n",
      "\n",
      "OK\n"
     ]
    }
   ],
   "source": [
    "# Exercise 2\n",
    "\n",
    "reload(tx)\n",
    "run(tx.TxTest('test_parse_inputs'))"
   ]
  },
  {
   "cell_type": "markdown",
   "metadata": {},
   "source": [
    "### Exercise 3\n",
    "\n",
    "\n",
    "\n",
    "\n",
    "#### Make [this test](/edit/week3/tx.py) pass: `tx.py:TxTest:test_parse_outputs`"
   ]
  },
  {
   "cell_type": "code",
   "execution_count": 12,
   "metadata": {},
   "outputs": [
    {
     "name": "stderr",
     "output_type": "stream",
     "text": [
      ".\n",
      "----------------------------------------------------------------------\n",
      "Ran 1 test in 0.005s\n",
      "\n",
      "OK\n"
     ]
    }
   ],
   "source": [
    "# Exercise 3\n",
    "\n",
    "reload(tx)\n",
    "run(tx.TxTest('test_parse_outputs'))"
   ]
  },
  {
   "cell_type": "markdown",
   "metadata": {},
   "source": [
    "### Exercise 4\n",
    "\n",
    "\n",
    "\n",
    "\n",
    "#### Make [this test](/edit/week3/tx.py) pass: `tx.py:TxTest:test_parse_locktime`"
   ]
  },
  {
   "cell_type": "code",
   "execution_count": 13,
   "metadata": {},
   "outputs": [
    {
     "name": "stderr",
     "output_type": "stream",
     "text": [
      ".\n",
      "----------------------------------------------------------------------\n",
      "Ran 1 test in 0.002s\n",
      "\n",
      "OK\n"
     ]
    }
   ],
   "source": [
    "# Exercise 4\n",
    "\n",
    "reload(tx)\n",
    "run(tx.TxTest('test_parse_locktime'))"
   ]
  },
  {
   "cell_type": "markdown",
   "metadata": {},
   "source": [
    "### Exercise 5\n",
    "What is the scriptSig from the second input in this tx? What is the scriptPubKey and amount of the first output in this tx? What is the amount for the second output?\n",
    "\n",
    "```\n",
    "010000000456919960ac691763688d3d3bcea9ad6ecaf875df5339e148a1fc61c6ed7a069e010000006a47304402204585bcdef85e6b1c6af5c2669d4830ff86e42dd205c0e089bc2a821657e951c002201024a10366077f87d6bce1f7100ad8cfa8a064b39d4e8fe4ea13a7b71aa8180f012102f0da57e85eec2934a82a585ea337ce2f4998b50ae699dd79f5880e253dafafb7feffffffeb8f51f4038dc17e6313cf831d4f02281c2a468bde0fafd37f1bf882729e7fd3000000006a47304402207899531a52d59a6de200179928ca900254a36b8dff8bb75f5f5d71b1cdc26125022008b422690b8461cb52c3cc30330b23d574351872b7c361e9aae3649071c1a7160121035d5c93d9ac96881f19ba1f686f15f009ded7c62efe85a872e6a19b43c15a2937feffffff567bf40595119d1bb8a3037c356efd56170b64cbcc160fb028fa10704b45d775000000006a47304402204c7c7818424c7f7911da6cddc59655a70af1cb5eaf17c69dadbfc74ffa0b662f02207599e08bc8023693ad4e9527dc42c34210f7a7d1d1ddfc8492b654a11e7620a0012102158b46fbdff65d0172b7989aec8850aa0dae49abfb84c81ae6e5b251a58ace5cfeffffffd63a5e6c16e620f86f375925b21cabaf736c779f88fd04dcad51d26690f7f345010000006a47304402200633ea0d3314bea0d95b3cd8dadb2ef79ea8331ffe1e61f762c0f6daea0fabde022029f23b3e9c30f080446150b23852028751635dcee2be669c2a1686a4b5edf304012103ffd6f4a67e94aba353a00882e563ff2722eb4cff0ad6006e86ee20dfe7520d55feffffff0251430f00000000001976a914ab0c0b2e98b1ab6dbf67d4750b0a56244948a87988ac005a6202000000001976a9143c82d7df364eb6c75be8c80df2b3eda8db57397088ac46430600\n",
    "```\n"
   ]
  },
  {
   "cell_type": "code",
   "execution_count": 17,
   "metadata": {},
   "outputs": [
    {
     "name": "stdout",
     "output_type": "stream",
     "text": [
      "304402207899531a52d59a6de200179928ca900254a36b8dff8bb75f5f5d71b1cdc26125022008b422690b8461cb52c3cc30330b23d574351872b7c361e9aae3649071c1a71601 035d5c93d9ac96881f19ba1f686f15f009ded7c62efe85a872e6a19b43c15a2937 \n",
      "OP_DUP OP_HASH160 ab0c0b2e98b1ab6dbf67d4750b0a56244948a879 OP_EQUALVERIFY OP_CHECKSIG \n",
      "40000000\n"
     ]
    }
   ],
   "source": [
    "# Exercise 5\n",
    "\n",
    "from io import BytesIO\n",
    "from tx import Tx\n",
    "hex_transaction = '010000000456919960ac691763688d3d3bcea9ad6ecaf875df5339e148a1fc61c6ed7a069e010000006a47304402204585bcdef85e6b1c6af5c2669d4830ff86e42dd205c0e089bc2a821657e951c002201024a10366077f87d6bce1f7100ad8cfa8a064b39d4e8fe4ea13a7b71aa8180f012102f0da57e85eec2934a82a585ea337ce2f4998b50ae699dd79f5880e253dafafb7feffffffeb8f51f4038dc17e6313cf831d4f02281c2a468bde0fafd37f1bf882729e7fd3000000006a47304402207899531a52d59a6de200179928ca900254a36b8dff8bb75f5f5d71b1cdc26125022008b422690b8461cb52c3cc30330b23d574351872b7c361e9aae3649071c1a7160121035d5c93d9ac96881f19ba1f686f15f009ded7c62efe85a872e6a19b43c15a2937feffffff567bf40595119d1bb8a3037c356efd56170b64cbcc160fb028fa10704b45d775000000006a47304402204c7c7818424c7f7911da6cddc59655a70af1cb5eaf17c69dadbfc74ffa0b662f02207599e08bc8023693ad4e9527dc42c34210f7a7d1d1ddfc8492b654a11e7620a0012102158b46fbdff65d0172b7989aec8850aa0dae49abfb84c81ae6e5b251a58ace5cfeffffffd63a5e6c16e620f86f375925b21cabaf736c779f88fd04dcad51d26690f7f345010000006a47304402200633ea0d3314bea0d95b3cd8dadb2ef79ea8331ffe1e61f762c0f6daea0fabde022029f23b3e9c30f080446150b23852028751635dcee2be669c2a1686a4b5edf304012103ffd6f4a67e94aba353a00882e563ff2722eb4cff0ad6006e86ee20dfe7520d55feffffff0251430f00000000001976a914ab0c0b2e98b1ab6dbf67d4750b0a56244948a87988ac005a6202000000001976a9143c82d7df364eb6c75be8c80df2b3eda8db57397088ac46430600'\n",
    "# bytes.fromhex to get the binary representation\n",
    "txbytes = bytes.fromhex(hex_transaction)\n",
    "\n",
    "# create a stream using BytesIO()\n",
    "s = BytesIO(txbytes)\n",
    "\n",
    "# Tx.parse() the stream\n",
    "tx = Tx.parse(s)\n",
    "\n",
    "# print tx's second input's scriptSig\n",
    "print(tx.tx_ins[1].script_sig)\n",
    "\n",
    "# print tx's first output's scriptPubKey\n",
    "print(tx.tx_outs[0].script_pubkey)\n",
    "\n",
    "# print tx's second output's amount\n",
    "print(tx.tx_outs[1].amount)\n"
   ]
  },
  {
   "cell_type": "code",
   "execution_count": null,
   "metadata": {},
   "outputs": [],
   "source": [
    "# Example opcode processing\n",
    "from helper import hash256\n",
    "def op_dup(stack):\n",
    "    if len(stack) < 1:\n",
    "        return False\n",
    "    stack.append(stack[-1])\n",
    "    return True\n",
    "def op_hash256(stack):\n",
    "    if len(stack) < 1:\n",
    "        return False\n",
    "    element = stack.pop()\n",
    "    stack.append(hash256(element))\n",
    "    return True"
   ]
  },
  {
   "cell_type": "markdown",
   "metadata": {},
   "source": [
    "### Exercise 6\n",
    "\n",
    "\n",
    "\n",
    "\n",
    "#### Make [this test](/edit/week3/op.py) pass: `op.py:OpTest:test_op_hash160`"
   ]
  },
  {
   "cell_type": "code",
   "execution_count": 37,
   "metadata": {},
   "outputs": [
    {
     "name": "stderr",
     "output_type": "stream",
     "text": [
      ".\n",
      "----------------------------------------------------------------------\n",
      "Ran 1 test in 0.002s\n",
      "\n",
      "OK\n"
     ]
    }
   ],
   "source": [
    "# Exercise 6\n",
    "\n",
    "reload(op)\n",
    "run(op.OpTest('test_op_hash160'))"
   ]
  },
  {
   "cell_type": "code",
   "execution_count": 36,
   "metadata": {},
   "outputs": [
    {
     "ename": "NotImplementedError",
     "evalue": "",
     "output_type": "error",
     "traceback": [
      "\u001b[0;31m---------------------------------------------------------------------------\u001b[0m",
      "\u001b[0;31mNotImplementedError\u001b[0m                       Traceback (most recent call last)",
      "\u001b[0;32m<ipython-input-36-3e1067a06d86>\u001b[0m in \u001b[0;36m<module>\u001b[0;34m\u001b[0m\n\u001b[1;32m      7\u001b[0m \u001b[0mscript_sig\u001b[0m \u001b[0;34m=\u001b[0m \u001b[0mScript\u001b[0m\u001b[0;34m(\u001b[0m\u001b[0;34m[\u001b[0m\u001b[0msig\u001b[0m\u001b[0;34m]\u001b[0m\u001b[0;34m)\u001b[0m\u001b[0;34m\u001b[0m\u001b[0m\n\u001b[1;32m      8\u001b[0m \u001b[0mcombined_script\u001b[0m \u001b[0;34m=\u001b[0m \u001b[0mscript_sig\u001b[0m \u001b[0;34m+\u001b[0m \u001b[0mscript_pubkey\u001b[0m\u001b[0;34m\u001b[0m\u001b[0m\n\u001b[0;32m----> 9\u001b[0;31m \u001b[0mprint\u001b[0m\u001b[0;34m(\u001b[0m\u001b[0mcombined_script\u001b[0m\u001b[0;34m.\u001b[0m\u001b[0mevaluate\u001b[0m\u001b[0;34m(\u001b[0m\u001b[0mz\u001b[0m\u001b[0;34m)\u001b[0m\u001b[0;34m)\u001b[0m\u001b[0;34m\u001b[0m\u001b[0m\n\u001b[0m",
      "\u001b[0;32m~/ProgrammingBitcoin/prog_bitcoin/week3/script.py\u001b[0m in \u001b[0;36mevaluate\u001b[0;34m(self, z)\u001b[0m\n\u001b[1;32m    143\u001b[0m                     \u001b[0;31m# these are signing operations, they need a sig_hash\u001b[0m\u001b[0;34m\u001b[0m\u001b[0;34m\u001b[0m\u001b[0m\n\u001b[1;32m    144\u001b[0m                     \u001b[0;31m# to check against\u001b[0m\u001b[0;34m\u001b[0m\u001b[0;34m\u001b[0m\u001b[0m\n\u001b[0;32m--> 145\u001b[0;31m                     \u001b[0;32mif\u001b[0m \u001b[0;32mnot\u001b[0m \u001b[0moperation\u001b[0m\u001b[0;34m(\u001b[0m\u001b[0mstack\u001b[0m\u001b[0;34m,\u001b[0m \u001b[0mz\u001b[0m\u001b[0;34m)\u001b[0m\u001b[0;34m:\u001b[0m\u001b[0;34m\u001b[0m\u001b[0m\n\u001b[0m\u001b[1;32m    146\u001b[0m                         \u001b[0mprint\u001b[0m\u001b[0;34m(\u001b[0m\u001b[0;34m'bad op: {}'\u001b[0m\u001b[0;34m.\u001b[0m\u001b[0mformat\u001b[0m\u001b[0;34m(\u001b[0m\u001b[0mOP_CODE_NAMES\u001b[0m\u001b[0;34m[\u001b[0m\u001b[0mcommand\u001b[0m\u001b[0;34m]\u001b[0m\u001b[0;34m)\u001b[0m\u001b[0;34m)\u001b[0m\u001b[0;34m\u001b[0m\u001b[0m\n\u001b[1;32m    147\u001b[0m                         \u001b[0;32mreturn\u001b[0m \u001b[0;32mFalse\u001b[0m\u001b[0;34m\u001b[0m\u001b[0m\n",
      "\u001b[0;32m~/ProgrammingBitcoin/prog_bitcoin/week3/op.py\u001b[0m in \u001b[0;36mop_checksig\u001b[0;34m(stack, z)\u001b[0m\n\u001b[1;32m    664\u001b[0m     \u001b[0;32mif\u001b[0m \u001b[0mlen\u001b[0m\u001b[0;34m(\u001b[0m\u001b[0mstack\u001b[0m\u001b[0;34m)\u001b[0m\u001b[0;34m<\u001b[0m\u001b[0;36m2\u001b[0m\u001b[0;34m:\u001b[0m\u001b[0;34m\u001b[0m\u001b[0m\n\u001b[1;32m    665\u001b[0m         \u001b[0;32mreturn\u001b[0m \u001b[0;32mFalse\u001b[0m\u001b[0;34m\u001b[0m\u001b[0m\n\u001b[0;32m--> 666\u001b[0;31m     \u001b[0;31m# get the sec_pubkey with stack.pop()\u001b[0m\u001b[0;34m\u001b[0m\u001b[0;34m\u001b[0m\u001b[0m\n\u001b[0m\u001b[1;32m    667\u001b[0m     \u001b[0msec_pubkey\u001b[0m \u001b[0;34m=\u001b[0m \u001b[0mstack\u001b[0m\u001b[0;34m.\u001b[0m\u001b[0mpop\u001b[0m\u001b[0;34m(\u001b[0m\u001b[0;34m)\u001b[0m\u001b[0;34m\u001b[0m\u001b[0m\n\u001b[1;32m    668\u001b[0m     \u001b[0;31m# get the der_signature with stack.pop()[:-1] (last byte is removed)\u001b[0m\u001b[0;34m\u001b[0m\u001b[0;34m\u001b[0m\u001b[0m\n",
      "\u001b[0;31mNotImplementedError\u001b[0m: "
     ]
    }
   ],
   "source": [
    "# Example of evaluation\n",
    "from script import Script\n",
    "z = 0x7c076ff316692a3d7eb3c3bb0f8b1488cf72e1afcd929e29307032997a838a3d\n",
    "sec = bytes.fromhex('04887387e452b8eacc4acfde10d9aaf7f6d9a0f975aabb10d006e4da568744d06c61de6d95231cd89026e286df3b6ae4a894a3378e393e93a0f45b666329a0ae34')\n",
    "sig = bytes.fromhex('3045022000eff69ef2b1bd93a66ed5219add4fb51e11a840f404876325a1e8ffe0529a2c022100c7207fee197d27c618aea621406f6bf5ef6fca38681d82b2f06fddbdce6feab601')\n",
    "script_pubkey = Script([sec, 0xac])\n",
    "script_sig = Script([sig])\n",
    "combined_script = script_sig + script_pubkey\n",
    "print(combined_script.evaluate(z))"
   ]
  },
  {
   "cell_type": "markdown",
   "metadata": {},
   "source": [
    "### Exercise 7\n",
    "\n",
    "\n",
    "\n",
    "\n",
    "#### Make [this test](/edit/week3/op.py) pass: `op.py:OpTest:test_op_checksig`"
   ]
  },
  {
   "cell_type": "code",
   "execution_count": 38,
   "metadata": {},
   "outputs": [
    {
     "name": "stderr",
     "output_type": "stream",
     "text": [
      ".\n",
      "----------------------------------------------------------------------\n",
      "Ran 1 test in 0.187s\n",
      "\n",
      "OK\n"
     ]
    }
   ],
   "source": [
    "# Exercise 7\n",
    "\n",
    "reload(op)\n",
    "run(op.OpTest('test_op_checksig'))"
   ]
  },
  {
   "cell_type": "code",
   "execution_count": 26,
   "metadata": {},
   "outputs": [
    {
     "name": "stdout",
     "output_type": "stream",
     "text": [
      "True\n"
     ]
    }
   ],
   "source": [
    "# Example Script\n",
    "from io import BytesIO\n",
    "from script import Script\n",
    "script_pubkey = Script([0x55, 0x93, 0x59, 0x87])\n",
    "script_sig = Script([0x54])\n",
    "combined_script = script_sig + script_pubkey\n",
    "print(combined_script.evaluate(0))"
   ]
  },
  {
   "cell_type": "markdown",
   "metadata": {},
   "source": [
    "### Exercise 8\n",
    "Determine a ScriptSig that will satisfy this scriptPubKey:\n",
    "```\n",
    "767695935687\n",
    "```\n"
   ]
  },
  {
   "cell_type": "code",
   "execution_count": 40,
   "metadata": {},
   "outputs": [
    {
     "name": "stdout",
     "output_type": "stream",
     "text": [
      "OP_DUP OP_DUP OP_MUL OP_ADD OP_6 OP_EQUAL \n",
      "True\n"
     ]
    }
   ],
   "source": [
    "# Exercise 8\n",
    "\n",
    "from io import BytesIO\n",
    "from script import Script, OP_CODE_FUNCTIONS\n",
    "script_pubkey = Script([0x76, 0x76, 0x95, 0x93, 0x56, 0x87])\n",
    "# DUP DUP MUL ADD 6 EQUAL\n",
    "# x^2 + x = 6\n",
    "# print the script_pubkey\n",
    "print(script_pubkey)\n",
    "\n",
    "# Find the right scriptSig\n",
    "script_sig = Script([0x52])\n",
    "combined_script = script_sig + script_pubkey\n",
    "print(combined_script.evaluate(0))\n",
    "\n",
    "# combine the scripts\n",
    "\n",
    "# evaluate combined script\n"
   ]
  },
  {
   "cell_type": "markdown",
   "metadata": {},
   "source": [
    "### Exercise 9\n",
    "Determine what this ScriptPubKey is doing:\n",
    "```\n",
    "6e879169a77ca787\n",
    "```\n",
    "\n",
    "* 69 = OP_VERIFY (exits if top element not true)\n",
    "* 6e = OP_2DUP (duplicates top 2 elements)\n",
    "* 7c = OP_SWAP (swaps top 2 elements)\n",
    "* 87 = OP_EQUAL\n",
    "* 91 = OP_NOT (inverts top element)\n",
    "* a7 = OP_SHA1 (sha1 of top element)\n"
   ]
  },
  {
   "cell_type": "code",
   "execution_count": 43,
   "metadata": {},
   "outputs": [
    {
     "name": "stdout",
     "output_type": "stream",
     "text": [
      "OP_2DUP OP_EQUAL OP_NOT OP_VERIFY OP_SHA1 OP_SWAP OP_SHA1 OP_EQUAL \n"
     ]
    }
   ],
   "source": [
    "# Exercise 9\n",
    "\n",
    "script_pubkey = Script([0x6e, 0x87, 0x91, 0x69, 0xa7, 0x7c, 0xa7, 0x87])\n",
    "# print the script_pubkey\n",
    "print(script_pubkey)\n",
    "# Looking for sha1 hash collision\n",
    "# sha1 pinata\n",
    "\n",
    "\n",
    "\n",
    "\n"
   ]
  },
  {
   "cell_type": "markdown",
   "metadata": {},
   "source": [
    "### Exercise 10\n",
    "\n",
    "\n",
    "\n",
    "\n",
    "#### Make [this test](/edit/week3/tx.py) pass: `tx.py:TxTest:test_serialize`"
   ]
  },
  {
   "cell_type": "code",
   "execution_count": 46,
   "metadata": {},
   "outputs": [
    {
     "name": "stderr",
     "output_type": "stream",
     "text": [
      ".\n",
      "----------------------------------------------------------------------\n",
      "Ran 1 test in 0.001s\n",
      "\n",
      "OK\n"
     ]
    }
   ],
   "source": [
    "# Exercise 10\n",
    "\n",
    "reload(tx)\n",
    "run(tx.TxTest('test_serialize'))"
   ]
  },
  {
   "cell_type": "code",
   "execution_count": null,
   "metadata": {},
   "outputs": [],
   "source": [
    "# Example of how to look up a transaction using fetch_tx() method\n",
    "from tx import TxIn\n",
    "prev_tx = bytes.fromhex('d1c789a9c60383bf715f3f6ad9d14b91fe55f3deb369fe5d9280cb1a01793f81')\n",
    "tx_in = TxIn(prev_tx, 0)\n",
    "print(tx_in.fetch_tx().tx_ins)"
   ]
  },
  {
   "cell_type": "markdown",
   "metadata": {},
   "source": [
    "### Exercise 11\n",
    "What is the value and ScriptPubKey of the 0th output of this transaction?\n",
    "```\n",
    "d1c789a9c60383bf715f3f6ad9d14b91fe55f3deb369fe5d9280cb1a01793f81\n",
    "```\n"
   ]
  },
  {
   "cell_type": "code",
   "execution_count": 49,
   "metadata": {},
   "outputs": [
    {
     "name": "stdout",
     "output_type": "stream",
     "text": [
      "42505594\n",
      "OP_DUP OP_HASH160 a802fc56c704ce87c42d7c92eb75e7896bdc41ae OP_EQUALVERIFY OP_CHECKSIG \n"
     ]
    }
   ],
   "source": [
    "# Exercise 11\n",
    "\n",
    "from tx import TxIn\n",
    "prev_tx = bytes.fromhex('d1c789a9c60383bf715f3f6ad9d14b91fe55f3deb369fe5d9280cb1a01793f81')\n",
    "prev_index = 0\n",
    "# create the transaction input\n",
    "tx_in = TxIn(prev_tx, prev_index)\n",
    "\n",
    "# fetch the transaction (call this tx_obj to not conflict)\n",
    "tx_obj = tx_in.fetch_tx()\n",
    "\n",
    "# grab the output at the index\n",
    "tx_out_0 = tx_obj.tx_outs[0]\n",
    "\n",
    "# show the amount\n",
    "print(tx_out_0.amount)\n",
    "\n",
    "# show the script_pubkey\n",
    "print(tx_out_0.script_pubkey)"
   ]
  },
  {
   "cell_type": "markdown",
   "metadata": {},
   "source": [
    "### Exercise 12\n",
    "\n",
    "\n",
    "\n",
    "\n",
    "#### Make [this test](/edit/week3/tx.py) pass: `tx.py:TxTest:test_input_value`"
   ]
  },
  {
   "cell_type": "code",
   "execution_count": 50,
   "metadata": {},
   "outputs": [
    {
     "name": "stderr",
     "output_type": "stream",
     "text": [
      ".\n",
      "----------------------------------------------------------------------\n",
      "Ran 1 test in 0.081s\n",
      "\n",
      "OK\n"
     ]
    }
   ],
   "source": [
    "# Exercise 12\n",
    "\n",
    "reload(tx)\n",
    "run(tx.TxTest('test_input_value'))"
   ]
  },
  {
   "cell_type": "markdown",
   "metadata": {},
   "source": [
    "### Exercise 13\n",
    "\n",
    "\n",
    "\n",
    "\n",
    "#### Make [this test](/edit/week3/tx.py) pass: `tx.py:TxTest:test_input_pubkey`"
   ]
  },
  {
   "cell_type": "code",
   "execution_count": 52,
   "metadata": {},
   "outputs": [
    {
     "name": "stderr",
     "output_type": "stream",
     "text": [
      ".\n",
      "----------------------------------------------------------------------\n",
      "Ran 1 test in 0.078s\n",
      "\n",
      "OK\n"
     ]
    }
   ],
   "source": [
    "# Exercise 13\n",
    "\n",
    "reload(tx)\n",
    "run(tx.TxTest('test_input_pubkey'))"
   ]
  },
  {
   "cell_type": "markdown",
   "metadata": {},
   "source": [
    "### Exercise 14\n",
    "How much is the transaction fee of this transaction?\n",
    "```\n",
    "010000000456919960ac691763688d3d3bcea9ad6ecaf875df5339e148a1fc61c6ed7a069e010000006a47304402204585bcdef85e6b1c6af5c2669d4830ff86e42dd205c0e089bc2a821657e951c002201024a10366077f87d6bce1f7100ad8cfa8a064b39d4e8fe4ea13a7b71aa8180f012102f0da57e85eec2934a82a585ea337ce2f4998b50ae699dd79f5880e253dafafb7feffffffeb8f51f4038dc17e6313cf831d4f02281c2a468bde0fafd37f1bf882729e7fd3000000006a47304402207899531a52d59a6de200179928ca900254a36b8dff8bb75f5f5d71b1cdc26125022008b422690b8461cb52c3cc30330b23d574351872b7c361e9aae3649071c1a7160121035d5c93d9ac96881f19ba1f686f15f009ded7c62efe85a872e6a19b43c15a2937feffffff567bf40595119d1bb8a3037c356efd56170b64cbcc160fb028fa10704b45d775000000006a47304402204c7c7818424c7f7911da6cddc59655a70af1cb5eaf17c69dadbfc74ffa0b662f02207599e08bc8023693ad4e9527dc42c34210f7a7d1d1ddfc8492b654a11e7620a0012102158b46fbdff65d0172b7989aec8850aa0dae49abfb84c81ae6e5b251a58ace5cfeffffffd63a5e6c16e620f86f375925b21cabaf736c779f88fd04dcad51d26690f7f345010000006a47304402200633ea0d3314bea0d95b3cd8dadb2ef79ea8331ffe1e61f762c0f6daea0fabde022029f23b3e9c30f080446150b23852028751635dcee2be669c2a1686a4b5edf304012103ffd6f4a67e94aba353a00882e563ff2722eb4cff0ad6006e86ee20dfe7520d55feffffff0251430f00000000001976a914ab0c0b2e98b1ab6dbf67d4750b0a56244948a87988ac005a6202000000001976a9143c82d7df364eb6c75be8c80df2b3eda8db57397088ac46430600\n",
    "```\n",
    "\n",
    "Fee is simply the sum of the inputs (use the value() method) minus the outputs (use the amount property)\n"
   ]
  },
  {
   "cell_type": "code",
   "execution_count": 54,
   "metadata": {},
   "outputs": [
    {
     "name": "stdout",
     "output_type": "stream",
     "text": [
      "140500\n"
     ]
    }
   ],
   "source": [
    "# Exercise 14\n",
    "\n",
    "from io import BytesIO\n",
    "from tx import Tx\n",
    "hex_tx = '010000000456919960ac691763688d3d3bcea9ad6ecaf875df5339e148a1fc61c6ed7a069e010000006a47304402204585bcdef85e6b1c6af5c2669d4830ff86e42dd205c0e089bc2a821657e951c002201024a10366077f87d6bce1f7100ad8cfa8a064b39d4e8fe4ea13a7b71aa8180f012102f0da57e85eec2934a82a585ea337ce2f4998b50ae699dd79f5880e253dafafb7feffffffeb8f51f4038dc17e6313cf831d4f02281c2a468bde0fafd37f1bf882729e7fd3000000006a47304402207899531a52d59a6de200179928ca900254a36b8dff8bb75f5f5d71b1cdc26125022008b422690b8461cb52c3cc30330b23d574351872b7c361e9aae3649071c1a7160121035d5c93d9ac96881f19ba1f686f15f009ded7c62efe85a872e6a19b43c15a2937feffffff567bf40595119d1bb8a3037c356efd56170b64cbcc160fb028fa10704b45d775000000006a47304402204c7c7818424c7f7911da6cddc59655a70af1cb5eaf17c69dadbfc74ffa0b662f02207599e08bc8023693ad4e9527dc42c34210f7a7d1d1ddfc8492b654a11e7620a0012102158b46fbdff65d0172b7989aec8850aa0dae49abfb84c81ae6e5b251a58ace5cfeffffffd63a5e6c16e620f86f375925b21cabaf736c779f88fd04dcad51d26690f7f345010000006a47304402200633ea0d3314bea0d95b3cd8dadb2ef79ea8331ffe1e61f762c0f6daea0fabde022029f23b3e9c30f080446150b23852028751635dcee2be669c2a1686a4b5edf304012103ffd6f4a67e94aba353a00882e563ff2722eb4cff0ad6006e86ee20dfe7520d55feffffff0251430f00000000001976a914ab0c0b2e98b1ab6dbf67d4750b0a56244948a87988ac005a6202000000001976a9143c82d7df364eb6c75be8c80df2b3eda8db57397088ac46430600'\n",
    "# bytes.fromhex the tx, make stream\n",
    "stream = BytesIO(bytes.fromhex(hex_tx))\n",
    "# parse the tx (call this tx_obj to not conflict with anything)\n",
    "tx_obj = Tx.parse(stream)\n",
    "# initialize input sum\n",
    "# iterate over all inputs (tx_obj.tx_ins)\n",
    "input_sum = sum([tx_in.value() for tx_in in tx_obj.tx_ins])\n",
    "\n",
    "# initialize output sum\n",
    "output_sum = sum([tx_out.amount for tx_out in tx_obj.tx_outs])\n",
    "\n",
    "# fee is input sum - output sum\n",
    "fee = input_sum - output_sum\n",
    "\n",
    "# print the fee\n",
    "print(fee)\n"
   ]
  },
  {
   "cell_type": "markdown",
   "metadata": {},
   "source": [
    "### Exercise 15\n",
    "\n",
    "\n",
    "\n",
    "\n",
    "#### Make [this test](/edit/week3/tx.py) pass: `tx.py:TxTest:test_fee`"
   ]
  },
  {
   "cell_type": "code",
   "execution_count": 56,
   "metadata": {},
   "outputs": [
    {
     "name": "stderr",
     "output_type": "stream",
     "text": [
      ".\n",
      "----------------------------------------------------------------------\n",
      "Ran 1 test in 0.720s\n",
      "\n",
      "OK\n"
     ]
    }
   ],
   "source": [
    "# Exercise 15\n",
    "\n",
    "reload(tx)\n",
    "run(tx.TxTest('test_fee'))"
   ]
  },
  {
   "cell_type": "code",
   "execution_count": null,
   "metadata": {},
   "outputs": [],
   "source": []
  }
 ],
 "metadata": {
  "kernelspec": {
   "display_name": "Python 3",
   "language": "python",
   "name": "python3"
  },
  "language_info": {
   "codemirror_mode": {
    "name": "ipython",
    "version": 3
   },
   "file_extension": ".py",
   "mimetype": "text/x-python",
   "name": "python",
   "nbconvert_exporter": "python",
   "pygments_lexer": "ipython3",
   "version": "3.5.2"
  }
 },
 "nbformat": 4,
 "nbformat_minor": 2
}
